{
  "contractName": "Events",
  "abi": [
    {
      "inputs": [
        {
          "internalType": "address payable",
          "name": "payout",
          "type": "address"
        }
      ],
      "stateMutability": "nonpayable",
      "type": "constructor"
    },
    {
      "anonymous": false,
      "inputs": [
        {
          "indexed": true,
          "internalType": "uint256",
          "name": "id",
          "type": "uint256"
        },
        {
          "indexed": false,
          "internalType": "string",
          "name": "name",
          "type": "string"
        },
        {
          "indexed": false,
          "internalType": "string",
          "name": "date",
          "type": "string"
        },
        {
          "indexed": false,
          "internalType": "string",
          "name": "location",
          "type": "string"
        },
        {
          "indexed": false,
          "internalType": "uint256",
          "name": "price",
          "type": "uint256"
        },
        {
          "indexed": false,
          "internalType": "uint256",
          "name": "ticketsAvailable",
          "type": "uint256"
        },
        {
          "indexed": false,
          "internalType": "string",
          "name": "about",
          "type": "string"
        }
      ],
      "name": "EventCreated",
      "type": "event"
    },
    {
      "anonymous": false,
      "inputs": [
        {
          "indexed": true,
          "internalType": "address",
          "name": "membership",
          "type": "address"
        }
      ],
      "name": "MembershipContractUpdated",
      "type": "event"
    },
    {
      "anonymous": false,
      "inputs": [
        {
          "indexed": true,
          "internalType": "uint256",
          "name": "id",
          "type": "uint256"
        },
        {
          "indexed": true,
          "internalType": "address",
          "name": "buyer",
          "type": "address"
        }
      ],
      "name": "TicketPurchased",
      "type": "event"
    },
    {
      "anonymous": false,
      "inputs": [
        {
          "indexed": true,
          "internalType": "uint256",
          "name": "id",
          "type": "uint256"
        },
        {
          "indexed": true,
          "internalType": "address",
          "name": "from",
          "type": "address"
        },
        {
          "indexed": true,
          "internalType": "address",
          "name": "to",
          "type": "address"
        }
      ],
      "name": "TicketTransferred",
      "type": "event"
    },
    {
      "inputs": [],
      "name": "BPS_DENOMINATOR",
      "outputs": [
        {
          "internalType": "uint16",
          "name": "",
          "type": "uint16"
        }
      ],
      "stateMutability": "view",
      "type": "function",
      "constant": true
    },
    {
      "inputs": [],
      "name": "BRONZE_DISCOUNT_BPS",
      "outputs": [
        {
          "internalType": "uint16",
          "name": "",
          "type": "uint16"
        }
      ],
      "stateMutability": "view",
      "type": "function",
      "constant": true
    },
    {
      "inputs": [],
      "name": "GOLD_DISCOUNT_BPS",
      "outputs": [
        {
          "internalType": "uint16",
          "name": "",
          "type": "uint16"
        }
      ],
      "stateMutability": "view",
      "type": "function",
      "constant": true
    },
    {
      "inputs": [],
      "name": "SILVER_DISCOUNT_BPS",
      "outputs": [
        {
          "internalType": "uint16",
          "name": "",
          "type": "uint16"
        }
      ],
      "stateMutability": "view",
      "type": "function",
      "constant": true
    },
    {
      "inputs": [],
      "name": "TIER_BRONZE",
      "outputs": [
        {
          "internalType": "uint8",
          "name": "",
          "type": "uint8"
        }
      ],
      "stateMutability": "view",
      "type": "function",
      "constant": true
    },
    {
      "inputs": [],
      "name": "TIER_GOLD",
      "outputs": [
        {
          "internalType": "uint8",
          "name": "",
          "type": "uint8"
        }
      ],
      "stateMutability": "view",
      "type": "function",
      "constant": true
    },
    {
      "inputs": [],
      "name": "TIER_SILVER",
      "outputs": [
        {
          "internalType": "uint8",
          "name": "",
          "type": "uint8"
        }
      ],
      "stateMutability": "view",
      "type": "function",
      "constant": true
    },
    {
      "inputs": [],
      "name": "membershipContract",
      "outputs": [
        {
          "internalType": "contract IMembership",
          "name": "",
          "type": "address"
        }
      ],
      "stateMutability": "view",
      "type": "function",
      "constant": true
    },
    {
      "inputs": [],
      "name": "nextEventId",
      "outputs": [
        {
          "internalType": "uint256",
          "name": "",
          "type": "uint256"
        }
      ],
      "stateMutability": "view",
      "type": "function",
      "constant": true
    },
    {
      "inputs": [],
      "name": "owner",
      "outputs": [
        {
          "internalType": "address",
          "name": "",
          "type": "address"
        }
      ],
      "stateMutability": "view",
      "type": "function",
      "constant": true
    },
    {
      "inputs": [],
      "name": "payoutWallet",
      "outputs": [
        {
          "internalType": "address payable",
          "name": "",
          "type": "address"
        }
      ],
      "stateMutability": "view",
      "type": "function",
      "constant": true
    },
    {
      "inputs": [
        {
          "internalType": "address",
          "name": "membership",
          "type": "address"
        }
      ],
      "name": "setMembershipContract",
      "outputs": [],
      "stateMutability": "nonpayable",
      "type": "function"
    },
    {
      "inputs": [
        {
          "internalType": "string",
          "name": "name",
          "type": "string"
        },
        {
          "internalType": "string",
          "name": "date",
          "type": "string"
        },
        {
          "internalType": "string",
          "name": "location",
          "type": "string"
        },
        {
          "internalType": "uint256",
          "name": "price",
          "type": "uint256"
        },
        {
          "internalType": "uint256",
          "name": "ticketsAvailable",
          "type": "uint256"
        },
        {
          "internalType": "string",
          "name": "about",
          "type": "string"
        }
      ],
      "name": "createEvent",
      "outputs": [],
      "stateMutability": "nonpayable",
      "type": "function"
    },
    {
      "inputs": [
        {
          "internalType": "uint256",
          "name": "eventId",
          "type": "uint256"
        }
      ],
      "name": "getEvent",
      "outputs": [
        {
          "components": [
            {
              "internalType": "uint256",
              "name": "id",
              "type": "uint256"
            },
            {
              "internalType": "string",
              "name": "name",
              "type": "string"
            },
            {
              "internalType": "string",
              "name": "date",
              "type": "string"
            },
            {
              "internalType": "string",
              "name": "location",
              "type": "string"
            },
            {
              "internalType": "uint256",
              "name": "price",
              "type": "uint256"
            },
            {
              "internalType": "uint256",
              "name": "ticketsAvailable",
              "type": "uint256"
            },
            {
              "internalType": "string",
              "name": "about",
              "type": "string"
            }
          ],
          "internalType": "struct Events.EventInfo",
          "name": "",
          "type": "tuple"
        }
      ],
      "stateMutability": "view",
      "type": "function",
      "constant": true
    },
    {
      "inputs": [],
      "name": "getEventCount",
      "outputs": [
        {
          "internalType": "uint256",
          "name": "",
          "type": "uint256"
        }
      ],
      "stateMutability": "view",
      "type": "function",
      "constant": true
    },
    {
      "inputs": [],
      "name": "getEventIds",
      "outputs": [
        {
          "internalType": "uint256[]",
          "name": "",
          "type": "uint256[]"
        }
      ],
      "stateMutability": "view",
      "type": "function",
      "constant": true
    },
    {
      "inputs": [
        {
          "internalType": "uint256",
          "name": "eventId",
          "type": "uint256"
        },
        {
          "internalType": "address",
          "name": "buyer",
          "type": "address"
        }
      ],
      "name": "getTicketPrice",
      "outputs": [
        {
          "internalType": "uint256",
          "name": "",
          "type": "uint256"
        }
      ],
      "stateMutability": "view",
      "type": "function",
      "constant": true
    },
    {
      "inputs": [
        {
          "internalType": "uint256",
          "name": "eventId",
          "type": "uint256"
        }
      ],
      "name": "buyTicket",
      "outputs": [],
      "stateMutability": "payable",
      "type": "function",
      "payable": true
    },
    {
      "inputs": [
        {
          "internalType": "uint256",
          "name": "eventId",
          "type": "uint256"
        },
        {
          "internalType": "address",
          "name": "buyer",
          "type": "address"
        }
      ],
      "name": "hasTicket",
      "outputs": [
        {
          "internalType": "bool",
          "name": "",
          "type": "bool"
        }
      ],
      "stateMutability": "view",
      "type": "function",
      "constant": true
    },
    {
      "inputs": [
        {
          "internalType": "uint256",
          "name": "eventId",
          "type": "uint256"
        },
        {
          "internalType": "address",
          "name": "to",
          "type": "address"
        }
      ],
      "name": "transferTicket",
      "outputs": [],
      "stateMutability": "nonpayable",
      "type": "function"
    }
  ],
  "bytecode": "0x60a060405260016002553480156200001657600080fd5b50604051620027ef380380620027ef83398181016040528101906200003c919062000193565b600073ffffffffffffffffffffffffffffffffffffffff168173ffffffffffffffffffffffffffffffffffffffff1603620000ae576040517f08c379a0000000000000000000000000000000000000000000000000000000008152600401620000a59062000226565b60405180910390fd5b8073ffffffffffffffffffffffffffffffffffffffff1660808173ffffffffffffffffffffffffffffffffffffffff1681525050336000806101000a81548173ffffffffffffffffffffffffffffffffffffffff021916908373ffffffffffffffffffffffffffffffffffffffff1602179055505062000248565b600080fd5b600073ffffffffffffffffffffffffffffffffffffffff82169050919050565b60006200015b826200012e565b9050919050565b6200016d816200014e565b81146200017957600080fd5b50565b6000815190506200018d8162000162565b92915050565b600060208284031215620001ac57620001ab62000129565b5b6000620001bc848285016200017c565b91505092915050565b600082825260208201905092915050565b7f496e76616c6964207061796f75742077616c6c65740000000000000000000000600082015250565b60006200020e601583620001c5565b91506200021b82620001d6565b602082019050919050565b600060208201905081810360008301526200024181620001ff565b9050919050565b6080516125846200026b60003960008181610a070152610dae01526125846000f3fe60806040526004361061011f5760003560e01c80638dbd9ca2116100a0578063d54f631611610064578063d54f6316146103cc578063d9e48f5c146103f5578063e1a4521814610420578063e3d3f8431461044b578063fdca1e91146104765761011f565b80638dbd9ca2146102e55780639a46e412146103105780639ebe6f8d1461033b5780639f9d903a14610378578063d38fe43f146103a35761011f565b8063679ebf1a116100e7578063679ebf1a1461020d57806367dd74ca146102365780636d1884e0146102525780638488bb4e1461028f5780638da5cb5b146102ba5761011f565b80631863c5c2146101245780633c0847f51461014f5780634843d2b11461017a57806351ec8d1e146101b757806355858e02146101e2575b600080fd5b34801561013057600080fd5b506101396104a1565b604051610146919061151d565b60405180910390f35b34801561015b57600080fd5b506101646104a7565b6040516101719190611554565b60405180910390f35b34801561018657600080fd5b506101a1600480360381019061019c919061160d565b6104ac565b6040516101ae9190611668565b60405180910390f35b3480156101c357600080fd5b506101cc610514565b6040516101d991906116e2565b60405180910390f35b3480156101ee57600080fd5b506101f761053a565b604051610204919061151d565b60405180910390f35b34801561021957600080fd5b50610234600480360381019061022f919061160d565b610540565b005b610250600480360381019061024b91906116fd565b6107eb565b005b34801561025e57600080fd5b50610279600480360381019061027491906116fd565b610b19565b604051610286919061187a565b60405180910390f35b34801561029b57600080fd5b506102a4610dac565b6040516102b191906118bd565b60405180910390f35b3480156102c657600080fd5b506102cf610dd0565b6040516102dc91906118e7565b60405180910390f35b3480156102f157600080fd5b506102fa610df4565b60405161030791906119b1565b60405180910390f35b34801561031c57600080fd5b50610325610e4c565b6040516103329190611554565b60405180910390f35b34801561034757600080fd5b50610362600480360381019061035d919061160d565b610e51565b60405161036f91906119e2565b60405180910390f35b34801561038457600080fd5b5061038d611051565b60405161039a91906119e2565b60405180910390f35b3480156103af57600080fd5b506103ca60048036038101906103c591906119fd565b611057565b005b3480156103d857600080fd5b506103f360048036038101906103ee9190611a8f565b6111db565b005b34801561040157600080fd5b5061040a611451565b60405161041791906119e2565b60405180910390f35b34801561042c57600080fd5b5061043561145e565b604051610442919061151d565b60405180910390f35b34801561045757600080fd5b50610460611464565b60405161046d9190611554565b60405180910390f35b34801561048257600080fd5b5061048b611469565b604051610498919061151d565b60405180910390f35b6105dc81565b600181565b60006005600084815260200190815260200160002060008373ffffffffffffffffffffffffffffffffffffffff1673ffffffffffffffffffffffffffffffffffffffff16815260200190815260200160002060009054906101000a900460ff16905092915050565b600160009054906101000a900473ffffffffffffffffffffffffffffffffffffffff1681565b6103e881565b600073ffffffffffffffffffffffffffffffffffffffff168173ffffffffffffffffffffffffffffffffffffffff16036105af576040517f08c379a00000000000000000000000000000000000000000000000000000000081526004016105a690611bfc565b60405180910390fd5b3373ffffffffffffffffffffffffffffffffffffffff168173ffffffffffffffffffffffffffffffffffffffff160361061d576040517f08c379a000000000000000000000000000000000000000000000000000000000815260040161061490611c68565b60405180910390fd5b6005600083815260200190815260200160002060003373ffffffffffffffffffffffffffffffffffffffff1673ffffffffffffffffffffffffffffffffffffffff16815260200190815260200160002060009054906101000a900460ff166106ba576040517f08c379a00000000000000000000000000000000000000000000000000000000081526004016106b190611cd4565b60405180910390fd5b60006005600084815260200190815260200160002060003373ffffffffffffffffffffffffffffffffffffffff1673ffffffffffffffffffffffffffffffffffffffff16815260200190815260200160002060006101000a81548160ff02191690831515021790555060016005600084815260200190815260200160002060008373ffffffffffffffffffffffffffffffffffffffff1673ffffffffffffffffffffffffffffffffffffffff16815260200190815260200160002060006101000a81548160ff0219169083151502179055508073ffffffffffffffffffffffffffffffffffffffff163373ffffffffffffffffffffffffffffffffffffffff16837fd15524263ae66f75c1e604c47db6085085110f23ef7322b355179ac5e3b0783a60405160405180910390a45050565b60006003600083815260200190815260200160002090506000816000015403610849576040517f08c379a000000000000000000000000000000000000000000000000000000000815260040161084090611d40565b60405180910390fd5b6000816005015411610890576040517f08c379a000000000000000000000000000000000000000000000000000000000815260040161088790611dac565b60405180910390fd5b6005600083815260200190815260200160002060003373ffffffffffffffffffffffffffffffffffffffff1673ffffffffffffffffffffffffffffffffffffffff16815260200190815260200160002060009054906101000a900460ff161561092e576040517f08c379a000000000000000000000000000000000000000000000000000000000815260040161092590611e18565b60405180910390fd5b600061093a8333610e51565b905080341461097e576040517f08c379a000000000000000000000000000000000000000000000000000000000815260040161097590611e84565b60405180910390fd5b60016005600085815260200190815260200160002060003373ffffffffffffffffffffffffffffffffffffffff1673ffffffffffffffffffffffffffffffffffffffff16815260200190815260200160002060006101000a81548160ff02191690831515021790555060018260050160008282546109fc9190611ed3565b9250508190555060007f000000000000000000000000000000000000000000000000000000000000000073ffffffffffffffffffffffffffffffffffffffff1634604051610a4990611f38565b60006040518083038185875af1925050503d8060008114610a86576040519150601f19603f3d011682016040523d82523d6000602084013e610a8b565b606091505b5050905080610acf576040517f08c379a0000000000000000000000000000000000000000000000000000000008152600401610ac690611f99565b60405180910390fd5b3373ffffffffffffffffffffffffffffffffffffffff16847f785f2865353ae960010300f584fc6c577b757a853af69a99c769df3c8232d3de60405160405180910390a350505050565b610b216114c3565b600360008381526020019081526020016000206040518060e001604052908160008201548152602001600182018054610b5990611fe8565b80601f0160208091040260200160405190810160405280929190818152602001828054610b8590611fe8565b8015610bd25780601f10610ba757610100808354040283529160200191610bd2565b820191906000526020600020905b815481529060010190602001808311610bb557829003601f168201915b50505050508152602001600282018054610beb90611fe8565b80601f0160208091040260200160405190810160405280929190818152602001828054610c1790611fe8565b8015610c645780601f10610c3957610100808354040283529160200191610c64565b820191906000526020600020905b815481529060010190602001808311610c4757829003601f168201915b50505050508152602001600382018054610c7d90611fe8565b80601f0160208091040260200160405190810160405280929190818152602001828054610ca990611fe8565b8015610cf65780601f10610ccb57610100808354040283529160200191610cf6565b820191906000526020600020905b815481529060010190602001808311610cd957829003601f168201915b505050505081526020016004820154815260200160058201548152602001600682018054610d2390611fe8565b80601f0160208091040260200160405190810160405280929190818152602001828054610d4f90611fe8565b8015610d9c5780601f10610d7157610100808354040283529160200191610d9c565b820191906000526020600020905b815481529060010190602001808311610d7f57829003601f168201915b5050505050815250509050919050565b7f000000000000000000000000000000000000000000000000000000000000000081565b60008054906101000a900473ffffffffffffffffffffffffffffffffffffffff1681565b60606004805480602002602001604051908101604052809291908181526020018280548015610e4257602002820191906000526020600020905b815481526020019060010190808311610e2e575b5050505050905090565b600281565b6000806003600085815260200190815260200160002090506000816000015403610eb0576040517f08c379a0000000000000000000000000000000000000000000000000000000008152600401610ea790611d40565b60405180910390fd5b600081600401549050600073ffffffffffffffffffffffffffffffffffffffff16600160009054906101000a900473ffffffffffffffffffffffffffffffffffffffff1673ffffffffffffffffffffffffffffffffffffffff161480610f425750600073ffffffffffffffffffffffffffffffffffffffff168473ffffffffffffffffffffffffffffffffffffffff16145b15610f5157809250505061104b565b6000600160009054906101000a900473ffffffffffffffffffffffffffffffffffffffff1673ffffffffffffffffffffffffffffffffffffffff1663b45aae52866040518263ffffffff1660e01b8152600401610fae91906118e7565b602060405180830381865afa158015610fcb573d6000803e3d6000fd5b505050506040513d601f19601f82011682018060405250810190610fef9190612045565b90506000610ffc8261146f565b905060008161ffff1603611016578294505050505061104b565b61271061ffff168161271061102b9190612072565b61ffff168461103a91906120a8565b6110449190612119565b9450505050505b92915050565b60025481565b60008054906101000a900473ffffffffffffffffffffffffffffffffffffffff1673ffffffffffffffffffffffffffffffffffffffff163373ffffffffffffffffffffffffffffffffffffffff16146110e5576040517f08c379a00000000000000000000000000000000000000000000000000000000081526004016110dc90611cd4565b60405180910390fd5b600073ffffffffffffffffffffffffffffffffffffffff168173ffffffffffffffffffffffffffffffffffffffff1603611154576040517f08c379a000000000000000000000000000000000000000000000000000000000815260040161114b90612196565b60405180910390fd5b80600160006101000a81548173ffffffffffffffffffffffffffffffffffffffff021916908373ffffffffffffffffffffffffffffffffffffffff1602179055508073ffffffffffffffffffffffffffffffffffffffff167fe9bbf5b6182b0e736e0f2ea3ebd067b5e1b08c6e58200d8c703a9767ec5c3e3760405160405180910390a250565b600060025490506001600260008282546111f591906121b6565b9250508190555060006040518060e001604052808381526020018d8d8080601f016020809104026020016040519081016040528093929190818152602001838380828437600081840152601f19601f8201169050808301925050505050505081526020018b8b8080601f016020809104026020016040519081016040528093929190818152602001838380828437600081840152601f19601f82011690508083019250505050505050815260200189898080601f016020809104026020016040519081016040528093929190818152602001838380828437600081840152601f19601f82011690508083019250505050505050815260200187815260200186815260200185858080601f016020809104026020016040519081016040528093929190818152602001838380828437600081840152601f19601f820116905080830192505050505050508152509050806003600084815260200190815260200160002060008201518160000155602082015181600101908161137691906123bb565b50604082015181600201908161138c91906123bb565b5060608201518160030190816113a291906123bb565b506080820151816004015560a0820151816005015560c08201518160060190816113cc91906123bb565b509050506004829080600181540180825580915050600190039060005260206000200160009091909190915055817f75f1587ed40facaf0fbb09fcecb7ea7ad7b798565755c57ffd2d9d2b80e078038d8d8d8d8d8d8d8d8d8d60405161143b9a999897969594939291906124c9565b60405180910390a2505050505050505050505050565b6000600480549050905090565b61271081565b600381565b6109c481565b6000600160ff168260ff1603611489576103e890506114be565b600260ff168260ff16036114a1576105dc90506114be565b600360ff168260ff16036114b9576109c490506114be565b600090505b919050565b6040518060e00160405280600081526020016060815260200160608152602001606081526020016000815260200160008152602001606081525090565b600061ffff82169050919050565b61151781611500565b82525050565b6000602082019050611532600083018461150e565b92915050565b600060ff82169050919050565b61154e81611538565b82525050565b60006020820190506115696000830184611545565b92915050565b600080fd5b600080fd5b6000819050919050565b61158c81611579565b811461159757600080fd5b50565b6000813590506115a981611583565b92915050565b600073ffffffffffffffffffffffffffffffffffffffff82169050919050565b60006115da826115af565b9050919050565b6115ea816115cf565b81146115f557600080fd5b50565b600081359050611607816115e1565b92915050565b600080604083850312156116245761162361156f565b5b60006116328582860161159a565b9250506020611643858286016115f8565b9150509250929050565b60008115159050919050565b6116628161164d565b82525050565b600060208201905061167d6000830184611659565b92915050565b6000819050919050565b60006116a86116a361169e846115af565b611683565b6115af565b9050919050565b60006116ba8261168d565b9050919050565b60006116cc826116af565b9050919050565b6116dc816116c1565b82525050565b60006020820190506116f760008301846116d3565b92915050565b6000602082840312156117135761171261156f565b5b60006117218482850161159a565b91505092915050565b61173381611579565b82525050565b600081519050919050565b600082825260208201905092915050565b60005b83811015611773578082015181840152602081019050611758565b60008484015250505050565b6000601f19601f8301169050919050565b600061179b82611739565b6117a58185611744565b93506117b5818560208601611755565b6117be8161177f565b840191505092915050565b600060e0830160008301516117e1600086018261172a565b50602083015184820360208601526117f98282611790565b915050604083015184820360408601526118138282611790565b9150506060830151848203606086015261182d8282611790565b9150506080830151611842608086018261172a565b5060a083015161185560a086018261172a565b5060c083015184820360c086015261186d8282611790565b9150508091505092915050565b6000602082019050818103600083015261189481846117c9565b905092915050565b60006118a7826115af565b9050919050565b6118b78161189c565b82525050565b60006020820190506118d260008301846118ae565b92915050565b6118e1816115cf565b82525050565b60006020820190506118fc60008301846118d8565b92915050565b600081519050919050565b600082825260208201905092915050565b6000819050602082019050919050565b600061193a838361172a565b60208301905092915050565b6000602082019050919050565b600061195e82611902565b611968818561190d565b93506119738361191e565b8060005b838110156119a457815161198b888261192e565b975061199683611946565b925050600181019050611977565b5085935050505092915050565b600060208201905081810360008301526119cb8184611953565b905092915050565b6119dc81611579565b82525050565b60006020820190506119f760008301846119d3565b92915050565b600060208284031215611a1357611a1261156f565b5b6000611a21848285016115f8565b91505092915050565b600080fd5b600080fd5b600080fd5b60008083601f840112611a4f57611a4e611a2a565b5b8235905067ffffffffffffffff811115611a6c57611a6b611a2f565b5b602083019150836001820283011115611a8857611a87611a34565b5b9250929050565b60008060008060008060008060008060c08b8d031215611ab257611ab161156f565b5b60008b013567ffffffffffffffff811115611ad057611acf611574565b5b611adc8d828e01611a39565b9a509a505060208b013567ffffffffffffffff811115611aff57611afe611574565b5b611b0b8d828e01611a39565b985098505060408b013567ffffffffffffffff811115611b2e57611b2d611574565b5b611b3a8d828e01611a39565b96509650506060611b4d8d828e0161159a565b9450506080611b5e8d828e0161159a565b93505060a08b013567ffffffffffffffff811115611b7f57611b7e611574565b5b611b8b8d828e01611a39565b92509250509295989b9194979a5092959850565b600082825260208201905092915050565b7f496e76616c696420726563697069656e74000000000000000000000000000000600082015250565b6000611be6601183611b9f565b9150611bf182611bb0565b602082019050919050565b60006020820190508181036000830152611c1581611bd9565b9050919050565b7f43616e6e6f74207472616e7366657220746f2073656c66000000000000000000600082015250565b6000611c52601783611b9f565b9150611c5d82611c1c565b602082019050919050565b60006020820190508181036000830152611c8181611c45565b9050919050565b7f4e6f74206f776e65720000000000000000000000000000000000000000000000600082015250565b6000611cbe600983611b9f565b9150611cc982611c88565b602082019050919050565b60006020820190508181036000830152611ced81611cb1565b9050919050565b7f4576656e74206e6f7420666f756e640000000000000000000000000000000000600082015250565b6000611d2a600f83611b9f565b9150611d3582611cf4565b602082019050919050565b60006020820190508181036000830152611d5981611d1d565b9050919050565b7f536f6c64206f7574000000000000000000000000000000000000000000000000600082015250565b6000611d96600883611b9f565b9150611da182611d60565b602082019050919050565b60006020820190508181036000830152611dc581611d89565b9050919050565b7f416c7265616479206f776e656400000000000000000000000000000000000000600082015250565b6000611e02600d83611b9f565b9150611e0d82611dcc565b602082019050919050565b60006020820190508181036000830152611e3181611df5565b9050919050565b7f496e636f72726563742070726963650000000000000000000000000000000000600082015250565b6000611e6e600f83611b9f565b9150611e7982611e38565b602082019050919050565b60006020820190508181036000830152611e9d81611e61565b9050919050565b7f4e487b7100000000000000000000000000000000000000000000000000000000600052601160045260246000fd5b6000611ede82611579565b9150611ee983611579565b9250828203905081811115611f0157611f00611ea4565b5b92915050565b600081905092915050565b50565b6000611f22600083611f07565b9150611f2d82611f12565b600082019050919050565b6000611f4382611f15565b9150819050919050565b7f5472616e73666572206661696c65640000000000000000000000000000000000600082015250565b6000611f83600f83611b9f565b9150611f8e82611f4d565b602082019050919050565b60006020820190508181036000830152611fb281611f76565b9050919050565b7f4e487b7100000000000000000000000000000000000000000000000000000000600052602260045260246000fd5b6000600282049050600182168061200057607f821691505b60208210810361201357612012611fb9565b5b50919050565b61202281611538565b811461202d57600080fd5b50565b60008151905061203f81612019565b92915050565b60006020828403121561205b5761205a61156f565b5b600061206984828501612030565b91505092915050565b600061207d82611500565b915061208883611500565b9250828203905061ffff8111156120a2576120a1611ea4565b5b92915050565b60006120b382611579565b91506120be83611579565b92508282026120cc81611579565b915082820484148315176120e3576120e2611ea4565b5b5092915050565b7f4e487b7100000000000000000000000000000000000000000000000000000000600052601260045260246000fd5b600061212482611579565b915061212f83611579565b92508261213f5761213e6120ea565b5b828204905092915050565b7f496e76616c6964206d656d626572736869702061646472657373000000000000600082015250565b6000612180601a83611b9f565b915061218b8261214a565b602082019050919050565b600060208201905081810360008301526121af81612173565b9050919050565b60006121c182611579565b91506121cc83611579565b92508282019050808211156121e4576121e3611ea4565b5b92915050565b7f4e487b7100000000000000000000000000000000000000000000000000000000600052604160045260246000fd5b60008190508160005260206000209050919050565b60006020601f8301049050919050565b600082821b905092915050565b60006008830261227b7fffffffffffffffffffffffffffffffffffffffffffffffffffffffffffffffff8261223e565b612285868361223e565b95508019841693508086168417925050509392505050565b60006122b86122b36122ae84611579565b611683565b611579565b9050919050565b6000819050919050565b6122d28361229d565b6122e66122de826122bf565b84845461224b565b825550505050565b600090565b6122fb6122ee565b6123068184846122c9565b505050565b5b8181101561232a5761231f6000826122f3565b60018101905061230c565b5050565b601f82111561236f5761234081612219565b6123498461222e565b81016020851015612358578190505b61236c6123648561222e565b83018261230b565b50505b505050565b600082821c905092915050565b600061239260001984600802612374565b1980831691505092915050565b60006123ab8383612381565b9150826002028217905092915050565b6123c482611739565b67ffffffffffffffff8111156123dd576123dc6121ea565b5b6123e78254611fe8565b6123f282828561232e565b600060209050601f8311600181146124255760008415612413578287015190505b61241d858261239f565b865550612485565b601f19841661243386612219565b60005b8281101561245b57848901518255600182019150602085019450602081019050612436565b868310156124785784890151612474601f891682612381565b8355505b6001600288020188555050505b505050505050565b82818337600083830152505050565b60006124a88385611b9f565b93506124b583858461248d565b6124be8361177f565b840190509392505050565b600060c08201905081810360008301526124e4818c8e61249c565b905081810360208301526124f9818a8c61249c565b9050818103604083015261250e81888a61249c565b905061251d60608301876119d3565b61252a60808301866119d3565b81810360a083015261253d81848661249c565b90509b9a505050505050505050505056fea26469706673582212207d4135b46c6616a7c1f683421fc9d4224bd065bdd9e8748ce12feb8d7900b58c64736f6c63430008130033",
  "immutableReferences": {
    "11": [
      {
        "length": 32,
        "start": 2567
      },
      {
        "length": 32,
        "start": 3502
      }
    ]
  },
  "source": "// SPDX-License-Identifier: MIT\npragma solidity ^0.8.19;\n\ninterface IMembership {\n    function getTier(address account) external view returns (uint8);\n}\n\ncontract Events {\n    address payable public immutable payoutWallet;\n    address public owner;\n    IMembership public membershipContract;\n    uint8 public constant TIER_BRONZE = 1;\n    uint8 public constant TIER_SILVER = 2;\n    uint8 public constant TIER_GOLD = 3;\n    uint16 public constant BPS_DENOMINATOR = 10000;\n    uint16 public constant BRONZE_DISCOUNT_BPS = 1000;\n    uint16 public constant SILVER_DISCOUNT_BPS = 1500;\n    uint16 public constant GOLD_DISCOUNT_BPS = 2500;\n\n    struct EventInfo {\n        uint256 id;\n        string name;\n        string date;\n        string location;\n        uint256 price;\n        uint256 ticketsAvailable;\n        string about;\n    }\n\n    uint256 public nextEventId = 1;\n    mapping(uint256 => EventInfo) private eventsById;\n    uint256[] private eventIds;\n    mapping(uint256 => mapping(address => bool)) private ticketOwners;\n\n    event EventCreated(\n        uint256 indexed id,\n        string name,\n        string date,\n        string location,\n        uint256 price,\n        uint256 ticketsAvailable,\n        string about\n    );\n\n    event TicketPurchased(uint256 indexed id, address indexed buyer);\n    event TicketTransferred(uint256 indexed id, address indexed from, address indexed to);\n    event MembershipContractUpdated(address indexed membership);\n\n    modifier onlyOwner() {\n        require(msg.sender == owner, \"Not owner\");\n        _;\n    }\n\n    constructor(address payable payout) {\n        require(payout != address(0), \"Invalid payout wallet\");\n        payoutWallet = payout;\n        owner = msg.sender;\n    }\n\n    function setMembershipContract(address membership) external onlyOwner {\n        require(membership != address(0), \"Invalid membership address\");\n        membershipContract = IMembership(membership);\n        emit MembershipContractUpdated(membership);\n    }\n\n    function createEvent(\n        string calldata name,\n        string calldata date,\n        string calldata location,\n        uint256 price,\n        uint256 ticketsAvailable,\n        string calldata about\n    ) external {\n        uint256 eventId = nextEventId;\n        nextEventId += 1;\n\n        EventInfo memory info = EventInfo({\n            id: eventId,\n            name: name,\n            date: date,\n            location: location,\n            price: price,\n            ticketsAvailable: ticketsAvailable,\n            about: about\n        });\n\n        eventsById[eventId] = info;\n        eventIds.push(eventId);\n\n        emit EventCreated(eventId, name, date, location, price, ticketsAvailable, about);\n    }\n\n    function getEvent(uint256 eventId) external view returns (EventInfo memory) {\n        return eventsById[eventId];\n    }\n\n    function getEventCount() external view returns (uint256) {\n        return eventIds.length;\n    }\n\n    function getEventIds() external view returns (uint256[] memory) {\n        return eventIds;\n    }\n\n    function getTicketPrice(uint256 eventId, address buyer) public view returns (uint256) {\n        EventInfo storage info = eventsById[eventId];\n        require(info.id != 0, \"Event not found\");\n        uint256 basePrice = info.price;\n        if (address(membershipContract) == address(0) || buyer == address(0)) {\n            return basePrice;\n        }\n        uint8 tier = membershipContract.getTier(buyer);\n        uint16 discountBps = _discountBpsForTier(tier);\n        if (discountBps == 0) {\n            return basePrice;\n        }\n        return (basePrice * (BPS_DENOMINATOR - discountBps)) / BPS_DENOMINATOR;\n    }\n\n    function buyTicket(uint256 eventId) external payable {\n        EventInfo storage info = eventsById[eventId];\n        require(info.id != 0, \"Event not found\");\n        require(info.ticketsAvailable > 0, \"Sold out\");\n        require(!ticketOwners[eventId][msg.sender], \"Already owned\");\n        uint256 expectedPrice = getTicketPrice(eventId, msg.sender);\n        require(msg.value == expectedPrice, \"Incorrect price\");\n\n        ticketOwners[eventId][msg.sender] = true;\n        info.ticketsAvailable -= 1;\n        (bool sent, ) = payoutWallet.call{value: msg.value}(\"\");\n        require(sent, \"Transfer failed\");\n        emit TicketPurchased(eventId, msg.sender);\n    }\n\n    function hasTicket(uint256 eventId, address buyer) external view returns (bool) {\n        return ticketOwners[eventId][buyer];\n    }\n\n    function transferTicket(uint256 eventId, address to) external {\n        require(to != address(0), \"Invalid recipient\");\n        require(to != msg.sender, \"Cannot transfer to self\");\n        require(ticketOwners[eventId][msg.sender], \"Not owner\");\n        ticketOwners[eventId][msg.sender] = false;\n        ticketOwners[eventId][to] = true;\n        emit TicketTransferred(eventId, msg.sender, to);\n    }\n\n    function _discountBpsForTier(uint8 tier) internal pure returns (uint16) {\n        if (tier == TIER_BRONZE) {\n            return BRONZE_DISCOUNT_BPS;\n        }\n        if (tier == TIER_SILVER) {\n            return SILVER_DISCOUNT_BPS;\n        }\n        if (tier == TIER_GOLD) {\n            return GOLD_DISCOUNT_BPS;\n        }\n        return 0;\n    }\n}\n",
  "sourcePath": "/Users/felix/Downloads/RP/C373/FA/EventProject/contracts/Events.sol",
  "compiler": {
    "name": "solc",
    "version": "0.8.19+commit.7dd6d404.Emscripten.clang"
  },
  "schemaVersion": "3.4.16",
  "updatedAt": "2026-01-27T03:23:07.474Z",
  "networkType": "ethereum",
  "devdoc": {
    "kind": "dev",
    "methods": {},
    "version": 1
  },
  "userdoc": {
    "kind": "user",
    "methods": {},
    "version": 1
  }
}