{
  "contractName": "Membership",
  "abi": [
    {
      "inputs": [
        {
          "internalType": "address payable",
          "name": "payout",
          "type": "address"
        }
      ],
      "stateMutability": "nonpayable",
      "type": "constructor"
    },
    {
      "anonymous": false,
      "inputs": [
        {
          "indexed": true,
          "internalType": "address",
          "name": "buyer",
          "type": "address"
        },
        {
          "indexed": false,
          "internalType": "uint8",
          "name": "tier",
          "type": "uint8"
        },
        {
          "indexed": false,
          "internalType": "uint256",
          "name": "price",
          "type": "uint256"
        }
      ],
      "name": "MembershipPurchased",
      "type": "event"
    },
    {
      "inputs": [],
      "name": "BRONZE_PRICE",
      "outputs": [
        {
          "internalType": "uint256",
          "name": "",
          "type": "uint256"
        }
      ],
      "stateMutability": "view",
      "type": "function",
      "constant": true
    },
    {
      "inputs": [],
      "name": "GOLD_PRICE",
      "outputs": [
        {
          "internalType": "uint256",
          "name": "",
          "type": "uint256"
        }
      ],
      "stateMutability": "view",
      "type": "function",
      "constant": true
    },
    {
      "inputs": [],
      "name": "SILVER_PRICE",
      "outputs": [
        {
          "internalType": "uint256",
          "name": "",
          "type": "uint256"
        }
      ],
      "stateMutability": "view",
      "type": "function",
      "constant": true
    },
    {
      "inputs": [],
      "name": "TIER_BRONZE",
      "outputs": [
        {
          "internalType": "uint8",
          "name": "",
          "type": "uint8"
        }
      ],
      "stateMutability": "view",
      "type": "function",
      "constant": true
    },
    {
      "inputs": [],
      "name": "TIER_GOLD",
      "outputs": [
        {
          "internalType": "uint8",
          "name": "",
          "type": "uint8"
        }
      ],
      "stateMutability": "view",
      "type": "function",
      "constant": true
    },
    {
      "inputs": [],
      "name": "TIER_NONE",
      "outputs": [
        {
          "internalType": "uint8",
          "name": "",
          "type": "uint8"
        }
      ],
      "stateMutability": "view",
      "type": "function",
      "constant": true
    },
    {
      "inputs": [],
      "name": "TIER_SILVER",
      "outputs": [
        {
          "internalType": "uint8",
          "name": "",
          "type": "uint8"
        }
      ],
      "stateMutability": "view",
      "type": "function",
      "constant": true
    },
    {
      "inputs": [],
      "name": "payoutWallet",
      "outputs": [
        {
          "internalType": "address payable",
          "name": "",
          "type": "address"
        }
      ],
      "stateMutability": "view",
      "type": "function",
      "constant": true
    },
    {
      "inputs": [
        {
          "internalType": "address",
          "name": "account",
          "type": "address"
        }
      ],
      "name": "getTier",
      "outputs": [
        {
          "internalType": "uint8",
          "name": "",
          "type": "uint8"
        }
      ],
      "stateMutability": "view",
      "type": "function",
      "constant": true
    },
    {
      "inputs": [
        {
          "internalType": "uint8",
          "name": "tier",
          "type": "uint8"
        }
      ],
      "name": "priceForTier",
      "outputs": [
        {
          "internalType": "uint256",
          "name": "",
          "type": "uint256"
        }
      ],
      "stateMutability": "pure",
      "type": "function",
      "constant": true
    },
    {
      "inputs": [
        {
          "internalType": "uint8",
          "name": "tier",
          "type": "uint8"
        }
      ],
      "name": "buyMembership",
      "outputs": [],
      "stateMutability": "payable",
      "type": "function",
      "payable": true
    }
  ],
  "bytecode": "0x60a06040523480156200001157600080fd5b5060405162000cb538038062000cb583398181016040528101906200003791906200014e565b600073ffffffffffffffffffffffffffffffffffffffff168173ffffffffffffffffffffffffffffffffffffffff1603620000a9576040517f08c379a0000000000000000000000000000000000000000000000000000000008152600401620000a090620001e1565b60405180910390fd5b8073ffffffffffffffffffffffffffffffffffffffff1660808173ffffffffffffffffffffffffffffffffffffffff16815250505062000203565b600080fd5b600073ffffffffffffffffffffffffffffffffffffffff82169050919050565b60006200011682620000e9565b9050919050565b620001288162000109565b81146200013457600080fd5b50565b60008151905062000148816200011d565b92915050565b600060208284031215620001675762000166620000e4565b5b6000620001778482850162000137565b91505092915050565b600082825260208201905092915050565b7f496e76616c6964207061796f75742077616c6c65740000000000000000000000600082015250565b6000620001c960158362000180565b9150620001d68262000191565b602082019050919050565b60006020820190508181036000830152620001fc81620001ba565b9050919050565b608051610a8f62000226600039600081816102ae01526105710152610a8f6000f3fe60806040526004361061009c5760003560e01c8063b45aae5211610064578063b45aae5214610178578063c0b96620146101b5578063c0fbed02146101f2578063cbc913d21461021d578063e3d3f84314610239578063e9bb901b146102645761009c565b80633c0847f5146100a15780635dbc6d6c146100cc5780638281b3ac146100f75780638488bb4e146101225780639a46e4121461014d575b600080fd5b3480156100ad57600080fd5b506100b661028f565b6040516100c391906106b5565b60405180910390f35b3480156100d857600080fd5b506100e1610294565b6040516100ee91906106e9565b60405180910390f35b34801561010357600080fd5b5061010c6102a0565b60405161011991906106e9565b60405180910390f35b34801561012e57600080fd5b506101376102ac565b6040516101449190610745565b60405180910390f35b34801561015957600080fd5b506101626102d0565b60405161016f91906106b5565b60405180910390f35b34801561018457600080fd5b5061019f600480360381019061019a91906107a3565b6102d5565b6040516101ac91906106b5565b60405180910390f35b3480156101c157600080fd5b506101dc60048036038101906101d791906107fc565b61032a565b6040516101e991906106e9565b60405180910390f35b3480156101fe57600080fd5b506102076103c6565b60405161021491906106e9565b60405180910390f35b610237600480360381019061023291906107fc565b6103d2565b005b34801561024557600080fd5b5061024e61068f565b60405161025b91906106b5565b60405180910390f35b34801561027057600080fd5b50610279610694565b60405161028691906106b5565b60405180910390f35b600181565b6703782dace9d9000081565b6706f05b59d3b2000081565b7f000000000000000000000000000000000000000000000000000000000000000081565b600281565b60008060008373ffffffffffffffffffffffffffffffffffffffff1673ffffffffffffffffffffffffffffffffffffffff16815260200190815260200160002060009054906101000a900460ff169050919050565b6000600160ff168260ff160361034a5767016345785d8a000090506103c1565b600260ff168260ff1603610368576703782dace9d9000090506103c1565b600360ff168260ff1603610386576706f05b59d3b2000090506103c1565b6040517f08c379a00000000000000000000000000000000000000000000000000000000081526004016103b890610886565b60405180910390fd5b919050565b67016345785d8a000081565b600160ff168160ff16101580156103f05750600360ff168160ff1611155b61042f576040517f08c379a000000000000000000000000000000000000000000000000000000000815260040161042690610886565b60405180910390fd5b60008060003373ffffffffffffffffffffffffffffffffffffffff1673ffffffffffffffffffffffffffffffffffffffff16815260200190815260200160002060009054906101000a900460ff1690508060ff168260ff16116104c7576040517f08c379a00000000000000000000000000000000000000000000000000000000081526004016104be906108f2565b60405180910390fd5b60006104d28361032a565b9050803414610516576040517f08c379a000000000000000000000000000000000000000000000000000000000815260040161050d9061095e565b60405180910390fd5b826000803373ffffffffffffffffffffffffffffffffffffffff1673ffffffffffffffffffffffffffffffffffffffff16815260200190815260200160002060006101000a81548160ff021916908360ff16021790555060007f000000000000000000000000000000000000000000000000000000000000000073ffffffffffffffffffffffffffffffffffffffff16346040516105b3906109af565b60006040518083038185875af1925050503d80600081146105f0576040519150601f19603f3d011682016040523d82523d6000602084013e6105f5565b606091505b5050905080610639576040517f08c379a000000000000000000000000000000000000000000000000000000000815260040161063090610a10565b60405180910390fd5b3373ffffffffffffffffffffffffffffffffffffffff167fe2c5b6420b508a46b55a5cb55c7340a67492866d4f51461ee443958079fe83578534604051610681929190610a30565b60405180910390a250505050565b600381565b600081565b600060ff82169050919050565b6106af81610699565b82525050565b60006020820190506106ca60008301846106a6565b92915050565b6000819050919050565b6106e3816106d0565b82525050565b60006020820190506106fe60008301846106da565b92915050565b600073ffffffffffffffffffffffffffffffffffffffff82169050919050565b600061072f82610704565b9050919050565b61073f81610724565b82525050565b600060208201905061075a6000830184610736565b92915050565b600080fd5b600061077082610704565b9050919050565b61078081610765565b811461078b57600080fd5b50565b60008135905061079d81610777565b92915050565b6000602082840312156107b9576107b8610760565b5b60006107c78482850161078e565b91505092915050565b6107d981610699565b81146107e457600080fd5b50565b6000813590506107f6816107d0565b92915050565b60006020828403121561081257610811610760565b5b6000610820848285016107e7565b91505092915050565b600082825260208201905092915050565b7f496e76616c696420746965720000000000000000000000000000000000000000600082015250565b6000610870600c83610829565b915061087b8261083a565b602082019050919050565b6000602082019050818103600083015261089f81610863565b9050919050565b7f43616e6e6f7420646f776e677261646500000000000000000000000000000000600082015250565b60006108dc601083610829565b91506108e7826108a6565b602082019050919050565b6000602082019050818103600083015261090b816108cf565b9050919050565b7f496e636f72726563742070726963650000000000000000000000000000000000600082015250565b6000610948600f83610829565b915061095382610912565b602082019050919050565b600060208201905081810360008301526109778161093b565b9050919050565b600081905092915050565b50565b600061099960008361097e565b91506109a482610989565b600082019050919050565b60006109ba8261098c565b9150819050919050565b7f5472616e73666572206661696c65640000000000000000000000000000000000600082015250565b60006109fa600f83610829565b9150610a05826109c4565b602082019050919050565b60006020820190508181036000830152610a29816109ed565b9050919050565b6000604082019050610a4560008301856106a6565b610a5260208301846106da565b939250505056fea2646970667358221220219aef903f554caecfc4dc921e98970b75d22a56b0d282fa20566ac26bf2eb7064736f6c63430008130033",
  "immutableReferences": {
    "24": [
      {
        "length": 32,
        "start": 686
      },
      {
        "length": 32,
        "start": 1393
      }
    ]
  },
  "source": "// SPDX-License-Identifier: MIT\npragma solidity ^0.8.19;\n\ncontract Membership {\n    uint8 public constant TIER_NONE = 0;\n    uint8 public constant TIER_BRONZE = 1;\n    uint8 public constant TIER_SILVER = 2;\n    uint8 public constant TIER_GOLD = 3;\n\n    uint256 public constant BRONZE_PRICE = 0.1 ether;\n    uint256 public constant SILVER_PRICE = 0.25 ether;\n    uint256 public constant GOLD_PRICE = 0.5 ether;\n\n    address payable public immutable payoutWallet;\n    mapping(address => uint8) private memberTier;\n\n    event MembershipPurchased(address indexed buyer, uint8 tier, uint256 price);\n\n    constructor(address payable payout) {\n        require(payout != address(0), \"Invalid payout wallet\");\n        payoutWallet = payout;\n    }\n\n    function getTier(address account) external view returns (uint8) {\n        return memberTier[account];\n    }\n\n    function priceForTier(uint8 tier) public pure returns (uint256) {\n        if (tier == TIER_BRONZE) {\n            return BRONZE_PRICE;\n        }\n        if (tier == TIER_SILVER) {\n            return SILVER_PRICE;\n        }\n        if (tier == TIER_GOLD) {\n            return GOLD_PRICE;\n        }\n        revert(\"Invalid tier\");\n    }\n\n    function buyMembership(uint8 tier) external payable {\n        require(tier >= TIER_BRONZE && tier <= TIER_GOLD, \"Invalid tier\");\n        uint8 currentTier = memberTier[msg.sender];\n        require(tier > currentTier, \"Cannot downgrade\");\n        uint256 price = priceForTier(tier);\n        require(msg.value == price, \"Incorrect price\");\n\n        memberTier[msg.sender] = tier;\n        (bool sent, ) = payoutWallet.call{value: msg.value}(\"\");\n        require(sent, \"Transfer failed\");\n\n        emit MembershipPurchased(msg.sender, tier, msg.value);\n    }\n}\n",
  "sourcePath": "/Users/felix/Downloads/RP/C373/FA/EventProject/contracts/Membership.sol",
  "compiler": {
    "name": "solc",
    "version": "0.8.19+commit.7dd6d404.Emscripten.clang"
  },
  "schemaVersion": "3.4.16",
  "updatedAt": "2026-01-27T03:23:07.471Z",
  "networkType": "ethereum",
  "devdoc": {
    "kind": "dev",
    "methods": {},
    "version": 1
  },
  "userdoc": {
    "kind": "user",
    "methods": {},
    "version": 1
  }
}